:020000040800F2
:10000000C8790020D9010008332B00081D280008FA
:10001000312B0008D5030008493700080000000014
:10002000000000000000000000000000EB010008DC
:10003000E505000800000000EF010008FD3200089F
:10004000F3010008F3010008F3010008F3010008C0
:10005000F3010008F3010008F3010008E7050008B8
:10006000F3010008F3010008ED050008F3010008A2
:10007000F3010008F3010008F3010008F301000890
:10008000F3010008F3010008F3010008F301000880
:10009000F3010008F3010008F3010008F301000870
:1000A000F3010008D3330008C7330008F301000848
:1000B000F3010008F3010008F3010008F301000850
:1000C000F3010008F3010008F3010008F301000840
:1000D000F301000801360008F3010008F3010008ED
:1000E000F3010008F3010008F3010008F301000820
:1000F000EB330008DF330008F3010008F3010008C8
:10010000F30100089B2C0008F3010008F30100082C
:10011000F3010008F3010008F3010008F3010008EF
:10012000F3010008F3010008F3010008D7030008F9
:10013000F30100080000000000000000F3010008C7
:10014000F3010008F3010008F3010008F3010008BF
:10015000F3010008E3030008F3010008F3010008BD
:10016000F3010008F3010008F3010008F30100089F
:10017000F3010008F3010008F3010008000000008B
:1001800000000000F3010008000000000000000073
:10019000F30100080000000000000000F301000867
:1001A000000000000000000000000000F301000853
:1001B000F3010008F3010008F3010008F30100084F
:1001C000F3010008DFF80CD000F08CF8004800477D
:1001D0007D4C0008C8790020064880470648004743
:1001E000FEE7FEE7FEE7FEE7FEE7FEE7FEE7FEE7E7
:1001F000FEE7FEE7AB330008C50100082DE9F05F1C
:100200000546002092469B46884606468146402485
:100210001BE0284641464746224600F053F8534625
:100220005A46C01A914110D311461846224600F092
:100230003AF82D1A67EB01084F46224601200021AB
:1002400000F031F817EB00094E41201EA4F1010423
:10025000DFDC484631462A464346BDE8F09F40EA87
:1002600001039B0703D009E008C9121F08C0042A34
:10027000FAD203E011F8013B00F8013B521EF9D21B
:100280007047D2B201E000F8012B491EFBD2704743
:100290000022F6E710B513460A4604461946FFF752
:1002A000F0FF204610BD202A04DB203A00FA02F1BC
:1002B000002070479140C2F1200320FA03F3194354
:1002C00090407047202A04DB203A21FA02F00021F6
:1002D000704721FA02F3D040C2F120029140084356
:1002E00019467047064C074D06E0E06840F00103F0
:1002F00094E8070098471034AC42F6D3FFF766FF46
:100300004C5100086C51000880B540F60000C4F262
:100310000200012100F006FCB0FA80F0400980BD27
:100320007047014643F2F870C2F2000001F087BA4C
:1003300080B543F2F870C2F2000001F092FA04387E
:1003400018BF012080BD80B500F00CF801281CBF4B
:10035000012080BD43F2F870C2F20000BDE8804089
:1003600001F09EBB80B582B001208DF80700FFF739
:10037000CBFF10B900208DF807009DF8070002B0F0
:1003800080BD80B582B09C4613460A46014643F2C2
:10039000F870C2F20000CDF800C001F05BFD00284B
:1003A00018BF012002B080BD704780B582B09C4666
:1003B00013460A46014643F2F870C2F20000CDF837
:1003C00000C001F05DFE002818BF012002B080BD12
:1003D00070470000FEE743F23870C2F2000000F000
:1003E00045B943F29870C2F2000000F03FB92DE920
:1003F000F04142F27808044600EB080742F2600040
:100400000E462044114609221D46FFF728FF42F2FE
:100410006900204429460D22FFF721FF0020B88003
:100420004FF0807044F8080042F27E0020444FF400
:100430000071C7F80C64FFF72BFF42F27F202044C5
:100440004FF40071FFF724FF012087F808042046CD
:10045000002100F09DF80020C4F202004FF400716A
:100460000022BDE8F04100F069BB000084B0044602
:1004700042F276002044009000200021C4F20200E5
:100480008DF80B1001914FF40071012200F056FB22
:1004900041F23000261842F26900271830463946EA
:1004A000112203F049FD0028F8D103A901AB304621
:1004B000042203F083FE304603F097FB9DF80C0006
:1004C0009DF80D10BDF80E2040EA01204FF47A711E
:1004D0004843B0FBF2F000994A80088042F2600085
:1004E000261800BF20463146112203F025FD0028C2
:1004F000F8D100990120C87143F63C10C2F2000007
:1005000001684FF0000AC1F824A001F051FF43F642
:10051000BC160DF10B0B01AF42F27E05C2F20006D4
:100520004FF000084FF000092046594601223B4693
:1005300003F044FE9DF80B0014FA89F1012809F13B
:100540000109CDF804A04855EED10098008800BFFD
:1005500031888142FCD3002008F10108C4F2020076
:1005600020211FFA88F9A6F800A000F0E0FA204642
:10057000002100F00DF800984088814505D3204601
:1005800000214FF0000803F05BFB8DF80BA0C9E7DA
:1005900070B540F20045C4F202050446A5F580603E
:1005A0004FF400710122012600F0C8FA42F28440A3
:1005B000205801220068C16821F40051C1602868F8
:1005C000402166F30D302860284600F0B7FA43F664
:1005D000BC00C2F20000016800224A62BDE870401F
:1005E00001F0E6BE7047022000F0B9B9102000F01B
:1005F000B6B970470022AFF3008080B542F2F86EC2
:10060000C2F2000E9EF809300BB1012080BD9EF8A9
:100610000930844600200EF803009EF809300EEBE6
:100620008303C3F804C09EF8093073441A729EF81D
:100630000920531C30328EF809300A7042F63A72A3
:10064000A1F80120C87080BD90F83510022909D1A9
:10065000052180F835100068016821F00101016072
:10066000002070478021416501207047F0B581B0BE
:1006700004460020009040F20400C2F2000002682C
:10068000D4E9166048F2B51337680821C1F64E3335
:1006900081403942A2FB03250CD0226813685B0716
:1006A00008D5136823F004031360B160616D41F055
:1006B0000101616501218140394208D022685269F7
:1006C000120604D5B160616D41F00201616504213B
:1006D0008140394208D022681268920704D5B1607F
:1006E000616D41F00401616510218140394217D0EC
:1006F00020680268120713D5B160026801685203CE
:1007000006D4C90506D4016821F00801016001E0A2
:10071000080301D4216C00E0A16C09B12046884790
:10072000E16D202000FA01F23A423BD020680368D4
:10073000DB0637D5B26094F835300268052B19D145
:1007400022F016020260426922F080024261226CAD
:100750000AB9A26C1AB1026822F0080202603F20B6
:100760008840B060002084F83400012084F835000F
:10077000216D34E0016852030CD4C9050ED4016820
:1007800021F010010160002084F83400012084F879
:10079000350003E0080301D4616C00E0E16B09B1AE
:1007A00020468847606DE8B1606DC00716D005200F
:1007B00084F835002068A90A026822F0010202606C
:1007C000009A01328A42009202D80268D207F7D119
:1007D000002084F83400012084F83500E16C09B170
:1007E0002046884701B0F0BD2DE9F041044600F0F5
:1007F000AAF9002C4ED00546002084F834000220CF
:1008000084F835002168086820F00100086000BF06
:100810000868C00706D000F096F9401B052866D886
:100820002168F5E7086848F23F02CFF21002D4E9E8
:100830000135024004F10C0E9EE8C1511A432A43CF
:1008400010433043384340EA0800626A40EA0C0033
:10085000042A40EA0E0320D1D4E90A5E206B4EEA56
:100860000302104308604869BEF1000F20F0030046
:1008700040EA050040F0040C15D0B8F5005F3AD00E
:10088000B8F1000F46D1022D47D0012D3CD0002DEC
:1008900043D008E00120BDE8F0810B60486920F0FA
:1008A000070040EA020C6FF00F004AF6AB2250FA44
:1008B00081F0CAF6AA22A0FB02231A0945F23413DA
:1008C000C1F814C0C0F600039A5C40F2FF335F2801
:1008D0004FF03F0021EA030100FA02F088BF043123
:1008E000C4E9161288600023012200201CE00322C4
:1008F0002023032018E0032DD5D801224023012016
:10090000DFE805F0120B1202AEF1C070B0FA80F011
:10091000400904E0032D04D3C5D1CEF300600028C4
:10092000C1D0012240230120636584F83520BDE851
:10093000F0810000B0B5044600F005F9054640F22C
:100940000800C2F200000078611C18BF044400BF18
:1009500000F0F9F8401BA042FAD3B0BD704743F64F
:100960001441C4F201010A68024214BF08607047D2
:10097000FFF7F4BF2DE9F04F82B000F13E4241F69F
:10098000000502F1FF77C4F20205072243F6004E8C
:100990004FEAB726A84208BF0622C4F2010E062E6F
:1009A00038BF4FEAB7224FF0010A002600274FF068
:1009B000000800920C680AFA08F914EA090F00F01E
:1009C0009E80D1F804C0BCF1120F00F2A1800AFA97
:1009D0000CF414F0061F00F09B8084680322CD689D
:1009E000BA409443BD402C43846044686FEA020BD4
:1009F00024EA0902CCF3001404FA08F44FEA480A86
:100A000022434260C2688C6802EA0B0204FA0AF4CC
:100A100022434CF01004122CC26012D16FF003027A
:100A200002EA58020244D2F820C006F01C040F2348
:100A30000D69A3402CEA0303A5402B431362D1F8B0
:100A400004C002680CF0030302EA0B0203FA0AF383
:100A50001A435FEACC034FF0010A02604FD500222F
:100A6000019243F64402C4F202021346126806F0F1
:100A70000C0542F480421A601A684FF6084302F4EB
:100A800080420192019A28F003027244CFF6FF736C
:100A90009C46D3580F24AC40A343009C04FA05F5B0
:100AA0002B4342F80C30DEF800204B6842EA09057F
:100AB000DC0358BF22EA0905CEF80050DEF8042016
:100AC0009C0342EA090558BF22EA0905CEF8045002
:100AD000DEF80820DC0242EA090558BF22EA0905CF
:100AE00043F60C42CEF80850C4F2010214461268D4
:100AF0009B0242EA090558BF22EA09052560023730
:100B000008F10108202F06F104067FF453AF06E038
:100B1000032202FA07F46FEA040BBA4672E702B046
:100B2000BDE8F08F0069084018BF01207047426996
:100B30000A408A4208BF090481617047002A08BF41
:100B400009048161704743F6C410C2F200000068D6
:100B5000704740F2080043F6C411C2F20000C2F22E
:100B6000000100780A6810440860704780B543F6B9
:100B70000040C4F20200016841F4007101600168A4
:100B800041F480610160016841F4807101600320DB
:100B900000F085F8002000F004F800F02AF80020AA
:100BA00080BDB0B540F20802C2F2000240F204017A
:100BB0001278C2F200014FF47A730968B3FBF2F2C3
:100BC0000446B1FBF2F1084601F055FB0F2C4FF043
:100BD00001050CD858B94FF0FF30214600220025FE
:100BE00000F032F840F20C00C2F200000460284627
:100BF000B0BD82B0002043F640010190C4F2020172
:100C00004A6842F480424A604A6802F48042019293
:100C1000019A0090086840F080500860086800F071
:100C200080500090009802B0704700280BD400F06C
:100C30001F01012202FA01F14EF200124009CEF228
:100C4000000242F82010704710B54EF60C5CCEF250
:100C5000000CDCF80030C3F3022E8EF00704042CE5
:100C600028BF0424BEF103034FF0FF3E0EFA04F444
:100C700038BF0023A14399400EFA03F39A4300F0D2
:100C80000F03043B1143634409010C3300F160423C
:100C9000B0F1FF3FC8BF02F56443197010BD4EF6B6
:100CA0000C51CEF200010A684FF6FF031A4060F3C0
:100CB0000A2242F0806040F0FD700860704700003A
:100CC00070B582B00020019043F64000C4F20200EB
:100CD0000168402641F0805101600068C4F20E2690
:100CE00000F080500190019847F204050120C4F201
:100CF00000053060FFF727FF044600BF2868C003E7
:100D000006D4FFF720FF001BB0F57A7FF6D90EE07E
:100D100001207060FFF717FF044600BF28688003BA
:100D200007D4FFF710FF001BB0F57A7FF6D9032038
:100D300000E0002002B070BD2DE9F04381B0044610
:100D4000006843F60006C107C4F2020602D14FF064
:100D500000090BE0D6F88C10A26B21F0C0611143A2
:100D6000C6F88C10B2FA82F14FEA511981070BD5FF
:100D7000D6F88C10E26B21F0C0511143C6F88C10EC
:100D8000002A08BF4FF00109410702D44FF00008C4
:100D900010E0D6F88C10226B21F440111143C6F8F4
:100DA0008C10B2FA82F14FEA5118B2F5801F08BFD9
:100DB0004FF00109010710D5D6F88C10626B21F4B1
:100DC00040011143B2F5800FC6F88C1008BF4FF0F8
:100DD0000109002A08BF4FF0010881065DD50020F7
:100DE0000090306C47F2000740F080503064306C67
:100DF000C4F2000700F0805000900098386840F47A
:100E000080703860FFF79FFE054600BF3868C00558
:100E100005D4FFF798FE401B0228F7D990E1306F08
:100E200010F4407023D0216C01F4407188421ED030
:100E3000306F40F64061C4F24721012220F4407037
:100E40000A6000220A603067306FC0070FD0FFF7DA
:100E50007AFE054641F28837306F800707D4FFF7E6
:100E600072FE401BB8424FF00300F5D969E12068DB
:100E7000216CB2684FF6FF4701F4407322F4F81278
:100E8000C0F6FF770F40B3F5407F08BF3A43B2602A
:100E9000326F6FF31F3111433167C10608D594F8E3
:100EA000580040F64061C4F24721C1F8A003206811
:100EB000010607D5D6F89410E26C21F440011143E5
:100EC000C6F89410410607D5D6F89410A26C21F00C
:100ED00080611143C6F89410C1050CD5D6F8941062
:100EE000626D21F000611143C6F89410B2F1006FF9
:100EF00008BF4FF00108810507D5D6F89410626C41
:100F000021F080511143C6F89410410507D4B9F17E
:100F1000000F16D1B0F5006F40F0B18011E0D6F8A7
:100F20009420216D22F000520A43B0F5006FC6F8FC
:100F3000942006D0B9F1000F03D1B1F1005F40F069
:100F40009E8040F26809C4F247290020C9F80000D9
:100F5000FFF7F9FD054600BF3068000105D5FFF732
:100F6000F2FD401B0228F7D9EAE02068C10701D052
:100F7000A16B19B1810714D5E16B91B9D6F8841032
:100F8000D6F88420D4E9013501F4403102F07062D2
:100F900019436769114341EA851141EA0771C6F8AF
:100FA0008410410703D5216BB1F5801F05D00107DF
:100FB00021D5616BB1F5800F1DD1D6F88410D6F81C
:100FC0008420D4E9013701F4403102F0E0421943B2
:100FD0002569114341EA871141EA0561D4F828C027
:100FE000C6F88410D6F88C10ACF1010221F01F0174
:100FF0001143C6F88C1041051FD5216DB1F1005F7A
:101000001BD1271DD6F884C0D6F88420A8CFFF03B3
:101010004FF6FF7127EA01014FF0C06702F0E0428E
:1010200007EA4C2707F100771A433A43A1F58031CC
:1010300042EA85121143C6F88410000510D5271D19
:101040008FCF40EA8110D1034FF6FF729143A1F593
:10105000803140EA0360084340EA0770C6F8840024
:101060000120C9F80000FFF76EFD05463068000159
:1010700005D4FFF768FD401B0228F7D960E0B8F1FE
:10108000000F4FF000005CD06827C4F24727B8601B
:10109000FFF759FD054600BF3068800005D5FFF712
:1010A00052FD401B0228F7D94AE02068410701D5CC
:1010B000216B19B101071CD5616BD1B9D6F8881025
:1010C000D4E9062301F44031656A114341EA8311F2
:1010D00041EA0561D4F82CC0C6F88810D6F88C1007
:1010E0006FF0FF0221F4F85102EB0C221143C6F815
:1010F0008C10C00516D5606DB0F1006F12D1D6F816
:101100008800226AD4E9061300F07060D2034FF61B
:10111000FF75AA430843A2F5803240EA83101043CA
:10112000C6F888000120B860FFF70DFD044600BF37
:101130003068800008D4FFF706FD001B0328F7D3B2
:10114000032001B0BDE8F0830020FAE72DE9F0416B
:10115000002800F0A38043F60008C4F20208044609
:10116000D8F800040D4600F00F00884208D288F835
:101170000054D8F8000400F00F00A84240F08E8020
:101180002068810717D5410705D5D8F8081041F424
:10119000E051C8F80810010705D5D8F8081041F447
:1011A0006041C8F80810D8F80810A26821F0F001D2
:1011B0001143C8F80810C00730D06068811E0229AA
:1011C00004D2D8F8001089010BD467E0012804D1BB
:1011D000D8F80010890304D460E0D8F8001089071B
:1011E0005CD5D8F8081021F003010843C8F80800BE
:1011F000FFF7A9FC064641F2883700BFD8F808007F
:10120000616800F00C00B0EB810F07D0FFF79BFC8A
:10121000801BB842F2D90320BDE8F081D8F8000461
:1012200000F00F00A84207D988F80054D8F800044D
:1012300000F00F00A84231D12068410707D5D8F847
:101240000810E26821F4E0511143C8F808100007C3
:1012500008D5D8F80800216920F4604040EAC100B0
:10126000C8F8080000F044F8D8F8081045F28602E3
:10127000C1F30311C0F60002515C40F2040220FAEF
:1012800001F140F20C00C2F200000068C2F200025C
:101290001160FFF786FC0020BDE8F0810120BDE869
:1012A000F08140F2040043F60801C2F20000C4F2EB
:1012B00002010068096845F29602C1F38221C0F676
:1012C0000002515CC840704740F2040043F6080138
:1012D000C2F20000C4F202010068096845F29602F9
:1012E000C1F34231C0F60002515CC84070470000B3
:1012F00010B543F60404C4F202046068C0F381012F
:1013000042F20040C0F2F400DFE801F03F020716AD
:1013100041F20020C0F27A0010BD216801F03F02C6
:10132000216823684902C3F3881114D4A1FB00018A
:101330000023FEF763FF15E0216801F03F022168FA
:1013400023684902C3F3881113D4A1FB00010023D1
:10135000FEF754FF14E041F20020C0F27A00484347
:10136000B0FBF2F021680222C1F3014102EB41011E
:1013700009E041F20020C0F27A004843B0FBF2F0ED
:101380002168C1F30271B0FBF1F010BD2DE9F0410D
:1013900082B00446007843F60006C007C4F2020695
:1013A00037D0B06800F00C0004282CD0B06800F0F2
:1013B0000C00082802D17068400224D4B06800F004
:1013C0000C000C2802D1706840021CD46568B5F589
:1013D000803F07D03068B5F5A02F40F02B8140F456
:1013E00080203060306840F480303060FFF7ABFB25
:1013F000054600BF306880030BD4FFF7A4FB401BF9
:101400006428F7D9BCE03068800302D56068002802
:101410006FD02078800737D5B06810F00C0F0FD050
:10142000B06800F00C00082802D17068400207D5AF
:10143000B06800F00C000C2809D17068400206D496
:101440003068800719D5E068012816D051E0E068BF
:10145000002800F0B8800020C4F24720012101607C
:10146000FFF771FB054600BF3068800705D4FFF722
:101470006AFB401B0228F7D982E03068216920F01E
:10148000F80040EAC10030602078000725D5606987
:1014900088B10020C4F247200121C0F8801EFFF768
:1014A00052FB0546706F800717D4FFF74CFB401BBB
:1014B0000228F7D964E00020C4F247200021C0F8D8
:1014C000801EFFF740FB0546706F800705D5FFF7CC
:1014D0003AFB401B0228F7D952E0207840070AD493
:1014E000A569002D00F0E380B06800F00C0008282A
:1014F00048D10120DCE0306C4FF00008C0000CD473
:10150000CDF80480306C4FF0010840F0805030641A
:10151000306C00F080500190019847F20007C4F24F
:1015200000073868C00510D4386840F4807038600F
:10153000FFF709FB054600BF3868C00505D4FFF773
:1015400002FB401B0228F7D91AE0A568012D05D03F
:10155000306F052D4CD140F004003067306F40F003
:1015600001003067FFF7EFFA054641F2883700BF08
:10157000306F800755D4FFF7E6FA401BB842F7D921
:10158000032095E00027C4F2472700203866FFF7C4
:10159000DAFA022D05460BD13068800163D5FFF7DA
:1015A000D2FA401B02284FF00300F5D980E000BFBB
:1015B000306880017BD5FFF7C6FA401B03284FF047
:1015C0000300F5D374E00020C4F24720002101603D
:1015D000FFF7B9FA054600BF306880077FF554AFC2
:1015E000FFF7B1FA401B02284FF00300F4D95FE087
:1015F00020F001003067306F20F004003067FFF703
:10160000A2FA002D0546B0D141F28837306F80072D
:1016100007D5FFF798FA401BB8424FF00300F5D901
:1016200046E0B8F1000F3FF45BAF306C20F0805023
:10163000306455E720F480303060306820F480203A
:101640003060FFF780FA002D05467FF4D3AE06E048
:10165000FFF779FA401B64284FF0030028D8306860
:101660008003F5D4D5E604F11C052FCD246B084387
:1016700040EA8210D9034FF6FF729143A1F5803101
:1016800040EA0560084340EA047070600120386653
:10169000FFF759FA044600BF3068800107D4FFF70E
:1016A00052FA001B02284FF00300F5D900E0002099
:1016B00002B0BDE8F081FEF733BE704780B5D0E9D7
:1016C000193ED0F844C09A0F0A70C3F383624A707F
:1016D000C3F301628A701A0CCA701A0A0A714FEABF
:1016E0001E524B71CA80CEF303420A72CEF3C0324F
:1016F0004A72CEF380328A72CEF34032CA72CEF38F
:1017000000320A730022BCF1010F4A7335D0BCF1DC
:10171000000F40F0858040F6FC72C36E02EA8E0234
:1017200042EA93720A61C26EC2F3C2630B75C2F3DE
:1017300002634B75C2F342538B75C2F38243CB7580
:10174000C2F3C2330B76D1F810C00B7E0CF1010C42
:1017500003F0070302330CFA03FCC0F854C00B7A01
:1017600003F00F0E012303FA0EF383655B0A03FBFC
:101770000CF3C3654FF4007311E0B0F86E200EF067
:101780003F0342EA03420A610A694FF4806303EBB4
:1017900082224FF40073C0E91523C265C26E03664E
:1017A000C2F380334B76C2F3C61302F07F028B760E
:1017B000CA76006FC20F0A77C0F341724A77C0F34E
:1017C00082628A77C0F38352CA77C0F3405281F8AD
:1017D0002020002281F82120C0F3004381F822302C
:1017E000C0F3C03381F82330C0F3803381F8243054
:1017F000C0F3403381F82530C0F3003381F8263040
:10180000C0F3812381F82730C0F30123C0B2400820
:1018100081F8283081F82900012081F82A000CE0A5
:10182000016840F2FF52C0F240028A63816B0122DC
:1018300041F08051816380F83420104680BD80B52E
:1018400000F1440E9EE80C5081E80C10426DC1E995
:1018500003E2D0E91623C1E90523026E0020CA6124
:1018600080BD10B5016D04460068090401F0FCFA62
:1018700020B1A16B0843A063002010BD20680021A7
:1018800001F008FAC0F3432010BD00002DE9F04339
:1018900081B004460068256B416B15F0080618BF3F
:1018A00011F400412AD1416BC90535D4416B002E9A
:1018B00061D011F480415ED0D4F82480B8F1000FDB
:1018C00000F0BD80276A0026E94600BFB95DBD195A
:1018D00000916A7841EA02210091AA7841EA024126
:1018E0000091EA7841EA02610091494601F0FCF971
:1018F0001C2E00F09F8020680436E7E7E56A002D83
:1019000000F09D80A66A002701F0EBF91C2FF05132
:101910002AD020680437F7E74FF480718163C16BE8
:101920004CF23A129143C163C16A002E21F00101C9
:10193000C16262D1290640F18280A90608D501F072
:10194000EBFA28B1A16B0843A0632046FFF7B5FE70
:10195000A80774D12068C16A21F00801C162012181
:10196000204684F834106DE0F119A5F1200004310F
:10197000C4E90A1063E0416B11F03A0F5FD0416B8C
:10198000890703D5A16B41F00201A163416B0907EF
:1019900003D5A16B41F00801A163416B890603D512
:1019A000A16B41F02001A163416BC90603D5A16B76
:1019B00041F01001A16340F23A518163C16B21F4FF
:1019C0009D71C16301F0A8FAA16B40EA0100A06318
:1019D000EEBB280633D515F0300F43D0E06B43F251
:1019E0007D11C0F600010165FEF72EFE38B3E06BF5
:1019F00001B0BDE8F04301F0C1BB15F0220F08D0E3
:101A000001F08AFA28B1A16B0843A0632046FFF7D2
:101A100054FE206840F23A518163012084F834007A
:101A20000020A907206320460CD001B0BDE8F04398
:101A300000F022BBA8F12000291DC4E9081001B064
:101A4000BDE8F08301B0BDE8F04300F017BB012012
:101A5000002184F834002046216301B0BDE8F04342
:101A6000FFF72BBEA8070FD0206C43F23711C0F64A
:101A700000010165FEF7E8FD0028E0D0206C01B010
:101A8000BDE8F04301F057BB00210120A16384F8B9
:101A900034002046216301B0BDE8F043FFF70BBEE0
:101AA00010B5D0B1044690F8340020B9002020775A
:101AB000204600F005F9032084F83400204600F0A9
:101AC0000FF800284FF0010018BF10BD0021A163DE
:101AD000216384F83400002010BD012010BD0000F7
:101AE000F0B58FB0044600687621002602910021EF
:101AF000002200230096019601F0D5F84FF0010571
:101B000098B948F2A007C4F225273E60206801F08A
:101B1000E0F83D600496206801F012F940B101251B
:101B200084F83450A16B0843A06328460FB0F0BD81
:101B3000206801F029F950B120680021A16401F06A
:101B4000FFF80028EBD1A06C012802D009E00120A9
:101B5000A0642068002101F0CDF810B14FF0805052
:101B6000DDE704984FF6FE71884221D80025CCF2BB
:101B700010154FF6FF7600BF2068002101F0BAF87B
:101B80000028CCD12068294601F0C0F80028E5D112
:101B90002068002101F07EF80499002801F101017C
:101BA0000491049901D4B142E6D3C0F3807000E0FF
:101BB000002004994FF6FF72914202D34FF08070DB
:101BC000ADE7606420680125ADF80E5001F05EF8C5
:101BD00088B1606C032811D12068042101F05AF803
:101BE000000DE06404A92046FFF768FD002853D0EB
:101BF0004FF0805094E74FF0806091E7206801F04B
:101C000020F900287FF48CAF2068002101F042F811
:101C1000216860670846042101F03CF82168A0674C
:101C20000846082101F036F82168E06708460C21D3
:101C300001F030F8616CC4F880000329CCD0206832
:101C40000DF10E0101F01CF900287FF469AF606C02
:101C50000328C1D0BDF80E1021652068090401F0E9
:101C6000FAF800287FF45CAF2068002101F012F838
:101C7000216860660846042101F00CF82168A0661E
:101C80000846082101F006F82168E06608460C21A4
:101C900001F000F820679FE7216D20680A04002307
:101CA00001F0C3F800287FF43BAF94E88F00D4E93B
:101CB0000565CDE90076029500F0F5FF002534E7D3
:101CC0002DE9F04F87B0044642F6004702A81421E0
:101CD000C4F20107FEF7DCFA2068B84240F0B68093
:101CE0004FF0000B43F63000CDF804B0C4F2020010
:101CF000416902AD41F40061416141694FF0020860
:101D000001F4006101910199CDF804B001684FF030
:101D1000030941F00201016001684FF00C0A01F073
:101D2000020101910199CDF804B0016841F004016C
:101D30000160016801F0040101910199CDF804B03E
:101D4000016841F0080101600068294600F00800C0
:101D5000019001980420029007F55840CDE9038BCB
:101D6000CDF81490CDF818A0FEF704FE4FF4807063
:101D7000CDE90208012604A880E8400607F55C408A
:101D80002946FEF7F7FD0420CDE9020804A880E803
:101D9000400607F560402946FEF7ECFD43F2387532
:101DA00046F25840C2F20005C4F202004FF000674C
:101DB0004FF480614FF480564FF48042202385E831
:101DC00081080420C5E903B1C5E90562EB614FF460
:101DD00000084FF4001AC5F820B0C5E909092846E3
:101DE000C5E90B8AFEF700FD08B1FEF702FC46F2DA
:101DF00058402564AC63C4F2020043F29875483041
:101E0000C2F200054021C5E900074FF48060C5E932
:101E1000021BC5E904064FF48040A8612020C5E9F3
:101E2000070B0420C5E909092846C5E90B8AFEF716
:101E3000DBFC08B1FEF7DDFB312000210022E56369
:101E4000AC63FEF701FF3120FEF7EFFE07B0BDE8FF
:101E5000F08F00002DE9F04786B01F4616460D466C
:101E60000446FEF770FE75B1804694F834000128F0
:101E70000DD10021A163E06DBA1982420FD9A06B88
:101E800040F0007006E0A06B40F0006002E0A06B44
:101E900040F00050A063012006B0BDE8F0870320A9
:101EA00084F834002068626CC1624FF40071012A2A
:101EB00018BF760200F037FF60B1216840F2FF5290
:101EC000C0F240028A63A16B0843A063012084F83A
:101ED0003400E1E74FF0FF3000907802019090204D
:101EE00002904FF002090020CDF80C900490206879
:101EF0004FF0010A6946CDF814A000F0B4FE022F9D
:101F000006D3C4F830902068314600F076FF05E033
:101F1000C4F830A02068314600F07BFF70B1216822
:101F200040F2FF52C0F240028A63A16B0843A063F3
:101F30000120002184F834002163ADE7DDF83890FA
:101F4000DDF804A02068426B416B12F4957F2AD122
:101F5000BAF1000F18BF11F400410DD0002600BFE8
:101F600000F0BFFE1C2EA85102D020680436F7E70F
:101F7000A819AAF1200A051DFEF7E5FDA0EB08004F
:101F80004845DFD3206840F2FF51C0F24001816331
:101F9000A06B40F00040A063012084F834000020D2
:101FA0002063032078E7022F12D311F480710FD041
:101FB000616C03290CD000F0AFFF0146206839B1F5
:101FC00040F2FF52C0F240028263A06B0843AEE7CA
:101FD000416B090714D4416B89071AD4416B8906F8
:101FE00020D4416BBAF1000F18BF11F4001122D1B7
:101FF00040F23A518163012084F8340000204BE71D
:1020000040F2FF51C0F240018163A06B40F0080034
:102010008DE740F2FF51C0F240018163A06B40F0B8
:10202000020084E740F2FF51C0F240018163A06BDF
:1020300040F020007BE7AAF1040600F052FE286081
:10204000FEF781FDA0EB080048450BD22068002E6A
:10205000416BCDD011F40011A6F1040605F1040581
:10206000EBD1C5E7206840F2FF51C0F24001816327
:10207000A06B40F000405AE7FEF796B9FEF7A8B90A
:102080002DE9F04F87B09B4617460E460446FEF7F3
:102090005AFD7EB1804694F8340001280ED100210B
:1020A000A163E06D0BEB070282420FD9A06B40F0F9
:1020B000007006E0A06B40F0006002E0A06B40F012
:1020C0000050A063012007B0BDE8F08F032084F822
:1020D00034002068626CC1624FF40071012A18BF9D
:1020E0007F0200F020FE60B1216840F2FF52C0F292
:1020F00040028A63A16B0843A063012084F8340086
:10210000E1E74FF0FF3001904FEA4B200290902022
:1021100003900020CDE9040001212068069101A967
:1021200000F0A1FDBBF1020F06D320202063206840
:10213000394600F000FF05E0102020632068394692
:1021400000F005FF70B1216840F2FF52C0F240027A
:102150008A63A16B0843A0630120002184F8340046
:102160002163B0E7109DDDF808A06F462068426B40
:10217000416B12F48D7F3CD1BAF1000F18BF11F4FE
:10218000804121D0002500BF715D06EB050900915B
:1021900099F8012041EA0221009199F8022041EAD0
:1021A0000241009199F8032041EA02610091394609
:1021B00000F09AFD1C2D02D020680435E4E7109D44
:1021C000AAF1200A09F10406FEF7BDFCA0EB080005
:1021D000A842CBD3206840F2FF51C0F24001816396
:1021E000A06BA063012084F834000020206303204A
:1021F00069E7BBF1020F12D311F480710FD0616C4B
:1022000003290CD000F088FE0146206839B140F265
:10221000FF52C0F240028263A06B08439BE7416B10
:1022200009070DD4416B890713D4416BC90619D432
:1022300040F23A518163012084F83400002042E7E3
:1022400040F2FF51C0F240018163A06B40F00800F2
:1022500081E740F2FF51C0F240018163A06B40F082
:10226000020078E740F2FF51C0F240018163A06BA9
:1022700040F010006FE7411E0020B0EB116F1CBF53
:10228000012070474EF21002CEF2000251604EF66D
:102290002351CEF20001F0230B70072190601160F2
:1022A000704770477047B0B110B5044690F83D00D4
:1022B00028B9002084F83C00204600F00EF80220E7
:1022C00084F83D002068211D01F095F8012084F874
:1022D0003D00002010BD0120704710B582B000689D
:1022E00044F2FF31C4F2010188421ADC41F6004198
:1022F000C4F20001884231D042F20001C4F2000170
:10230000884229D10020019043F64000C4F2020027
:1023100001682D2441F480710160006800F4807030
:1023200039E044F60001C4F20101884225D044F2AC
:102330000041C4F2010188420ED10020019043F611
:102340004000C4F202004168192441F400314160A8
:10235000406800F400301EE002B010BD0020019083
:1023600043F64000C4F2020001682C2441F08001D1
:102370000160006800F080000DE00020019043F64D
:102380004000C4F2020041681A2441F480214160F7
:10239000406800F48020019001982046002100222E
:1023A000FEF752FC204602B0BDE81040FEF73DBCEF
:1023B0000068C16841F00101C160816801F0070156
:1023C000062903D0016841F0010101600020704737
:1023D000006841F21112C16821F00101C160016A77
:1023E000114208D1016A40F24442114203D101680E
:1023F00021F00101016000207047704710B50168AD
:1024000004460869800744BFC8685FEA807038D412
:102410000869400744BFC8685FEA40703DD4086956
:10242000000744BFC8685FEA007043D40869C0066B
:1024300044BFC8685FEAC06048D40869C0071CBFD1
:10244000C8685FEAC0704ED10869000644BFC8681A
:102450005FEA00604FD40869400644BFC8685FEA7D
:10246000406050D40869800646BFC8685FEA806053
:1024700010BD6FF0200220460A61BDE81040FFF752
:1024800011BF6FF002000861012020778869800782
:1024900041D02046FFF7B1FF43E06FF00400086130
:1024A00002202077886910F4407F3ED02046FFF755
:1024B000A4FF40E06FF00800086104202077C8699D
:1024C00080073CD02046FFF798FF3EE06FF01000F9
:1024D000086108202077C86910F4407F39D0204671
:1024E000FFF78BFF3BE06FF001000861204600F032
:1024F0003CF82168A8E76FF0800008612046FFF7EC
:10250000D0FE2168A7E76FF040000861204600F088
:1025100079F82168A6E7204600F025F8204600F06B
:1025200023F821680020207772E7204600F01BF88E
:10253000204600F019F82168002020776FE7204638
:1025400000F011F8204600F00FF8216800202077F5
:102550006CE7204600F007F8204600F005F82168F7
:102560000020207769E77047704780B543F67C010B
:10257000C2F20001884244D043F6BC01C2F200011D
:10258000884211D043F6FC01C2F20001884231D0EA
:1025900043F63C11C2F20001884218BF80BD43F6E9
:1025A000BC10C2F2000029E043F6BC00C2F20000F9
:1025B000FFF70EFF40F20040C4F202000168022261
:1025C00062F30D31016043F67C10C2F20000036833
:1025D00042F27E02D96841F4005C40F27021C2F2FE
:1025E0000001114440F20122C3F80CC0BDE8804054
:1025F00000F0D4B843F6C010C2F2000001880131E7
:10260000018080BD704750B310B5044690F8390082
:1026100028B9002084F83800204600F022F8242051
:1026200084F839002068C16821F40051C160204657
:1026300000F06FFF2068016921F490410161416958
:1026400021F02A014161C16841F40051C1600020BC
:102650002021E06384F8391084F83A1010BD01207D
:1026600070472DE9F04387B0044641F2000502A807
:102670001421C4F20105FDF70BFE2068A84248D1E1
:10268000002643F630000196C4F20200416902AC14
:1026900041F01001416141694FF0020801F0100161
:1026A00001910199019601684FF0030941F0010180
:1026B00001600168072701F001010191019901966C
:1026C000016841F0020101600068214600F002004B
:1026D000019001984FF48060029005F57040CDE9BB
:1026E0000386CDF814900697FEF744F94020CDE913
:1026F000020805F574402146CDE904690697FEF706
:1027000039F9252000210022FEF79EFA2520FEF748
:102710008CFA07B0BDE8F083034690F83A00202811
:1027200007D14FF00100E9B1E2B193F83800012878
:1027300001D1022070479962002022219A85DA8512
:10274000D86383F83A10196883F83800CA6842F4ED
:102750008072CA604A6942F001024A61CA6842F066
:102760002002CA60704710B540F27024C2F2000423
:1027700042F27C00205C012818BF10BD42F27A00B2
:10278000012121540020C4F202002021FEF7CFF9DC
:1027900042F27800215A0131215210BD034690F8CF
:1027A0003900202807D14FF00100A9B1A2B193F858
:1027B0003800012801D10220704719620020212130
:1027C0009A84DA84D86383F83910196883F838005A
:1027D000CA6842F08002CA60704740F27020C2F2BC
:1027E000000042F27D01405C012818BF704743F6AB
:1027F0007C10C2F2000000680022C16821F4005180
:10280000C16040F20040C4F202000368012161F39C
:102810000D3340210360FEF791B90000FEE780B55B
:1028200082B00020019043F63000C4F2020001683B
:10283000002241F4800101600068002100F4800062
:10284000019001983B20FEF7FFF93B20FEF7EDF9E0
:10285000452000210022FEF7F7F9452002B0BDE82F
:102860008040FEF7E2B980B545F2201040F26A21BF
:10287000C0F60000C2F20001FDF7BCFE43F6BE1137
:10288000C2F20001087080BD2DE9F04F87B000272B
:1028900043F63000CDE905770197C4F202000168E4
:1028A000002441F0040101600168C4F2020401F057
:1028B00004010191019901970168002241F0800112
:1028C0000160016801F0800101910199019701689F
:1028D00041F001010160016801F0010101910199DC
:1028E0000197016841F002010160016801F00201F5
:1028F000019101990197016841F0080101600068A8
:102900004FF4287100F00800019001982046FEF76E
:1029100015F940F200084FF40050C1F2110802907E
:1029200008F5801004F5006602ADCDE903073046D6
:102930002946FEF71FF84FF0010A30462946CDE937
:1029400002A70497FEF716F841F6EE6002904FF0EA
:10295000030B30462946CDE903B7FEF70BF849F6DD
:102960005110CDE9020B204629460497FEF702F8E4
:102970004FF0020920462946CDE90298CDF810A073
:10298000FDF7F8FF0C20CDE902090720CDE9047B13
:10299000069020462946FDF7EDFF4FF42870CDE95B
:1029A000020A20462946CDE90477FDF7E3FF10200F
:1029B00002A981E8010530462946FDF7DBFF4FF209
:1029C000B370CDE9020B04F5806029460497FDF74A
:1029D000D1FF072000210022FEF736F90720FEF77D
:1029E00024F90A2000210022FEF72EF90A20FEF722
:1029F0001CF907B0BDE8F08F80B543F2F87042F6DD
:102A00000041C2F20000C4F2010140F8041B182189
:102A1000FDF73EFC80BD80B543F67C0044F20041EA
:102A2000C2F20000C4F201010A2200234FF4C66C76
:102A300080E80E10802103618161FFF734FC18B13A
:102A4000BDE88040FDF7D5BD80BD80B543F6BC0034
:102A500044F60001C2F20000C4F201010A22002380
:102A60004FF0900C80E80E10802103618161FFF728
:102A70001AFC18B1BDE88040FDF7BBBD80BD80B534
:102A800043F6FC0041F60041C2F20000C4F200012E
:102A900042F21072002341F2941C4FF4007E80E851
:102AA0000E5080218161FFF7FEFB18B1BDE8804028
:102AB000FDF79FBD80BD80B543F63C1042F200019A
:102AC000C2F20000C4F200012D2200234FF47A7CF0
:102AD0004FF4007E80E80E5080218161FFF7E3FB18
:102AE00018B1BDE88040FDF784BD80BD10B543F648
:102AF0007C1041F20001C2F20000C4F201014DF26B
:102B0000900200234FF00C0E4FF40044C0F2030279
:102B10004FF4005C80E80E10C0E9043EC0E90634C2
:102B2000FFF771FD18B1BDE81040FDF762BD10BDA3
:102B3000FEE770472DE9F04F83B0074642F2780078
:102B400001EB000B0020019042F260000D460E18D0
:102B5000ADF80A70284631460A2201F0EDF9002846
:102B6000F8D141F230002E1842F269002C1800BF53
:102B7000304621460A2201F0DFF90028F8D140F260
:102B80000008C4F2020840464FF4007100224FF0E2
:102B90000009FDF7D3FF43F6C014C2F2000440461B
:102BA0004FF400710022ABF80090A4F80090FDF7FC
:102BB000C5FFDBF80C0442F27F21294440F20222D7
:102BC000FFF7AAFD43F6FC00C2F20000FFF7F0FB9E
:102BD00001208BF804002088B84225D842F27B00FF
:102BE00040F2100905EB0008C2F200090DF1040AD9
:102BF0009BF80200012814D100208BF8020028461F
:102C0000494640F20122534601F004FC2846414661
:102C10000122534601F0FEFB284601F0ADFBBDF852
:102C20000A702088B842E3D900208BF804002846B7
:102C300000F0DBFF01AC0DF10A0130460222234611
:102C400001F0E8FB304659460222234601F0E2FB40
:102C5000304600F0CAFF0A204FF4FA7102F098F8EB
:102C600003B0BDE8F08F80B5024691E8095050628C
:102C7000936208694EEA0C0318434969D36A084312
:102C800023F0F70101430020D16280BD006800F00D
:102C90000300704708444069704743F2F870C2F27D
:102CA0000000FEF7F3BD10B58446DDE90240114394
:102CB00019432143DDF810E00843DCF8041047F61F
:102CC000FF6240EA0E00914301430020CCF804105B
:102CD00010BD80B5032101600220FDF72BFE00200E
:102CE00080BDD0F880007047096802460020C2F815
:102CF000801070478160C36840F2774161F30B0335
:102D0000372141F28832C36000F02EB941F0004112
:102D100041F480118160C16840F2694262F30B01A5
:102D2000C16000F0E3B98160C3684FF48A6161F368
:102D30000B03102141F28832C36000F015B9000086
:102D400000218160C1684FF4806262F30B01C160B1
:102D500040F20401C2F20001096844F6D352C1F204
:102D60006202A1FB0212510A41F288325143C94367
:102D7000013124BF4FF000407047426B1206F7D577
:102D8000C5218163002070474FF4D5718160C1680F
:102D90004FF4896262F30B01C16040F20401C2F298
:102DA0000001096844F6D352C1F26202A1FB02128B
:102DB000510A41F288325143C94300BF013113D255
:102DC000426B12F0450FF9D012F40062F6D1416B5C
:102DD00049070CD4416BC9070BD1416B490644BF6D
:102DE00040218163002106E04FF0004103E004210F
:102DF00000E001218163084670478160C36840F2AA
:102E0000524161F30B03122141F28832C36000F09A
:102E1000ABB88160C36840F2514161F30B031121EB
:102E200041F28832C36000F09FB88260C36840F20C
:102E3000474161F30B03072141F28832C36000F080
:102E400093B800218160C16840F2C24262F30B0175
:102E5000C16000F01FB98160C16840F2C94262F3ED
:102E60000B01C16000F016B98160C36840F24D41AA
:102E700061F30B030D2141F28832C36000F074B896
:102E800000228260C26840F2434363F30B02C260D7
:102E900040F20402C2F20002126844F6D353C1F2B7
:102EA0006203A2FB03235A0A41F288335A43D243F6
:102EB00001321FD2436B13F0450FF9D013F40063B6
:102EC000F6D1426B520718D4426BD20717D1026970
:102ED000D2B2032A17D1C5228263406910F4604F31
:102EE00013D0410415D44FF48051000458BF4FF45F
:102EF000803106E04FF0004103E0042100E00121B1
:102F00008163084670470121FBE7000C088000211F
:102F1000F7E74FF40051F4E700218160C36840F205
:102F20004C414EF2001261F30B03C0F2F5520C213A
:102F3000C36000F019B88160C36840F2594161F381
:102F40000B03192141F28832C36000F00DB8816093
:102F5000C3684FF48B6161F30B03182141F288328F
:102F6000C36000F001B8000040F20403C2F20003A5
:102F7000D3F800C044F6D353C1F26203ACFB033C68
:102F800003464FEA5C205043013000BF013804BFC4
:102F90004FF0004070475A6B12F0450FF6D012F414
:102FA0000062F3D1586B400742BF0420986370471A
:102FB000586BC0071EBF012098637047C5209863F7
:102FC0001869C0B288421CBF0120704758694EF290
:102FD0000801CFF6FF51084204BF002070470028C7
:102FE00054D4410044BF40207047810044BF80203A
:102FF0007047C10044BF4FF480707047010144BF67
:103000004FF400707047410144BF4FF48060704737
:10301000C10144BF4FF400607047010244BF4FF448
:1030200080507047410244BF4FF400507047810206
:1030300044BF4FF480407047C10244BF4FF400408A
:103040007047410344BF4FF400307047810344BFD1
:103050004FF480207047C10344BF4FF400207047F5
:10306000010444BF4FF480107047410444BF4FF443
:1030700000107047810444BF4FF480007047000780
:103080004FF4000058BF4FF4803070474FF000708D
:103090007047000040F20401C2F20001096844F6E2
:1030A000D352C1F26202A1FB0212510A41F28832EC
:1030B0005143C943013110D2426B12F0450FF9D090
:1030C00012F40062F6D1416B490709D4416BC9077C
:1030D00008D1C5218163002106E04FF0004103E0E3
:1030E000042100E0012181630846704740F2040199
:1030F000C2F20001096844F6D352C1F26202A1FB98
:103100000212510A41F288325143C94301310ED2B1
:10311000426B12F0450FF9D012F40062F6D1416B08
:10312000042211F0040108BFC522826301E04FF0C0
:1031300000410846704710B5846B40F23A51206850
:1031400081632046FEF78DFB0121053884F8341099
:1031500000210128216305D82068FFF7DDFEA16B5F
:103160000843A063A06B20B12046BDE81040FEF7E5
:10317000A4BA2046BDE81040FEF79DBA10B5846B96
:1031800040F23A51206881632046FEF76AFB012134
:10319000053884F8341000210128216305D82068FF
:1031A000FFF7BAFEA16B0843A063A06B20B12046D5
:1031B000BDE81040FEF781BA2046BDE81040FEF79A
:1031C0007ABAB0B540F20004C2F2000401252570BD
:1031D000FDF7B9F848B92570FDF7AAF818B92078B5
:1031E00000F0FE002070207820702078B0BD000034
:1031F00010B588B040F20000C2F200000078C007AD
:103200000CD1084603290BD81446DFE800F0180259
:103210000B116846FDF785F806980EE003200EE0D6
:1032200004200CE06846FDF77CF80798208005E054
:103230006846FDF776F80798400A2060002008B03D
:1032400010BD000080B5084611461A464FF0FF3306
:10325000FDF797F810B1012080BD00BFFDF768F8B9
:103260000028FBD1002080BD10B540F20004C2F25E
:10327000000401202070FDF75BF818B9207800F0F9
:10328000FE002070207810BD80B5084611461A4611
:103290004FF0FF33FDF789F810B1012080BD00BF6A
:1032A000FDF746F80028FBD1002080BD10B543F69D
:1032B0007C14C2F2000420684168012905D1A06A8B
:1032C000411CA1620021017004E04068A16A4A1C0F
:1032D000A2620870E08D01380104E08518BF10BDBE
:1032E0002046FFF740FA40F20120E085A08540F239
:1032F0001000C2F200000138A06210BDFDF729BC29
:10330000F0B5A9B01CAD281D1421FCF7C1FF6C4617
:10331000201D5821FCF7BCFF002643F640001796FD
:10332000C4F202000168022741F080510160006888
:1033300000F080501790179847F200001796C4F2DB
:103340000000016841F4404101600068B42100F4CC
:1033500040401790179801201C971F901020209034
:103360000820CDE922762490CDE92517CDE927075D
:103370002846FEF70BF8FDF7A3FC0F20CDE9170751
:103380004FF4A05019961A904FF480501B9017A834
:103390000521FDF7DBFE4FF44070009020461596A6
:1033A0001196FDF7C9FC29B0F0BD4EF60850CEF2DB
:1033B0000000D0F8801041F47001C0F880104FF088
:1033C00000610160704743F6BC00C2F20000FFF7E5
:1033D00015B843F67C00C2F20000FFF70FB843F6C1
:1033E0003C10C2F20000FFF709B843F6FC00C2F23D
:1033F0000000FFF703B810B540F6FF3E0368C4F2C3
:10340000000E40F2004C7045C4F2010C0DDCB0F12E
:10341000804F17D040F20042C4F20002904211D017
:1034200040F60002C4F200020AE040F60042C4F294
:103430000002904206D0604504D00022C4F201028E
:10344000904203D14A6823F07003134341F6FF72A0
:10345000C4F2000290420DDC70451FDCB0F1804FD9
:103460003FD040F20042C4F20002904239D040F610
:10347000000221E043F6FF72C4F2010290421EDC1A
:1034800042F20002C4F2000290422AD00022C4F2AA
:103490000102904225D0604523D026E040F600424C
:1034A000C4F2000290421CD041F60002C4F20002B5
:1034B000904216D041F60042C4F200020FE044F2FE
:1034C0000002C4F2010290420BD044F60002C4F2A2
:1034D0000102904205D044F20042C4F2010290423F
:1034E00003D1CA6823F44073134323F080024B696D
:1034F000D1F800E08C681A430260C46240F4806234
:10350000C0F828E0624504BF0969016301214161F7
:1035100010BDB0B50546006805F108030ECB04697F
:10352000194324F44054224302616A69EB69114350
:10353000C26849F20C641943A2431143C160416956
:10354000AA6921F440711143416141F20041B3F590
:10355000004F40F48060C4F2010104D1884207D1D9
:10356000FDF7B2FE06E0884225D1FDF7ADFE24E06E
:10357000FDF797FE6B681921A0FB01015A00DB0FD4
:10358000FCF73CFE48F21F51C5F2EB11A0FB0123F2
:103590005A096FF0630302FB0300322303EBC00000
:1035A000A0FB01014FF4F87000EA111000EB0210CB
:1035B000C1F3421120E0FDF774FE6B681921A0FBF6
:1035C00001019A009B0FFCF719FE48F21F51C5F24A
:1035D000EB11A0FB01235A096FF0630302FB030008
:1035E000322303EB0010A0FB0101F02000EA511090
:1035F00000EB0210C1F343112A6808439060B0BD8C
:10360000F0B543F67C10C2F2000001680A68D1F8F8
:103610000CC04C6902F02F03202B0CF0200304D1C6
:103620001BB1BDE8F040FFF741BE5FEA027E05D066
:1036300004F0010484F001052BBB25B302EA0C025F
:1036400013060CD452066AD5CA6822F04002CA603A
:10365000202180F83910BDE8F040FFF7BEB890F89F
:103660003920212A5BD18368026AB3F5805F57D184
:1036700013886FF35F234B600369002B14BF013283
:103680000232026250E002F00407012686EA970740
:103690002F430FD10F684F6840F20127C7858785F8
:1036A00040F21007C2F20007013F8762C76B47F084
:1036B0000207C76302F0020786EA570635430FD1B7
:1036C0000D684D6840F20125C585858540F21005DD
:1036D000C2F20005013D8562C56B45F00405C56376
:1036E000234318BF0123BEF1000F10D57BB10B6837
:1036F000496840F20121C185818540F21001C2F282
:10370000000101398162C16B41F00801C163C06BE6
:103710000CEA0201890602D500287FF482AFF0BDD1
:10372000531C036212784A60C28C013A1304C284AB
:1037300018BFF0BDC86820F08000C860C86840F0BD
:103740004000C860F0BD0000FEE710B50446002050
:10375000E0704FF0FF302063204601F0FDFA08B121
:10376000042010BD94F8320294F8331240EA01208C
:103770004AF6552188421CBF032010BD94F834003E
:10378000E92805D0EB281BD194F83600902817D1F2
:1037900094F86C2094F86B3094F86A10120444F298
:1037A000461042EA0322C0F254001144814205D07F
:1037B000D4F8861000F14C50814201D1002010BD98
:1037C000022010BDB0B540F2182E0022C2F2000E49
:1037D0004FF0000C5EF8023073B10468A3420DD1C3
:1037E0000EEB02035C688568AC4207D19C684569B2
:1037F000AC4203D10FE000BF4FF0010C1032502A51
:10380000E8D11222BCF1000F18BF0022881E18BF99
:103810001046C0B2B0BD09B11020FAE79889A0F5F2
:103820008070B0FA80F040090001F2E7C36A5A687C
:103830009AB1D0F800C0BCF80C00B1FBF0F0BCF8B5
:103840000A10B0FBF1F003F1080100BF904206D36B
:10385000801A4A680831002AF8D1002070470968A8
:10386000084470472DE9F04104688846074679B15D
:103870003846414601F020F902283CBF0120BDE84E
:10388000F081411C24D0A1694546884206D23AE025
:10389000256915B1A069854200D301252E4600BFD8
:1038A000A0690136864228BF022601D3022D0CD31F
:1038B0003846314601F000F9411C24D060B101289E
:1038C00008BFBDE8F081AE42EAD10020BDE8F0813A
:1038D0004FF0FF30BDE8F081204631464FF0FF3217
:1038E00001F06CFAB8F1000F014606D029B9204664
:1038F0004146324601F062FA014631B10120012908
:1039000008BF4FF0FF30BDE8F081D4E90501266122
:10391000023988429CBF01386061207940F0010083
:1039200020713046BDE8F0812DE9F0470446C069BA
:103930000426B0B10F46616901F120050021B1EB09
:10394000555F0ED1D4F80090B9F80C10B5FBF1F228
:1039500002FB115141B109EB0100343000266561D1
:1039600020623046BDE8F087A1690130E06131B1E5
:10397000B9F80A00013810420AD00021EBE7B9F883
:1039800008000021B0EB551FE5D8E1610426E8E707
:10399000204601F091F8022801D20226E1E7804694
:1039A000013039D0D9F8180080450DD2A8F1020AAB
:1039B00002388245C4F818801ED2B9F80A00D9F836
:1039C0002C100AFB001018E0FFB1A1692046FFF798
:1039D00049FF8046013003281AD24FF6F871C0F231
:1039E000FF0101EAC00040F20171C0F2020121FAB8
:1039F00000F0C0B2BDE8F0870020B9F80C10E0611B
:103A0000B5FBF1F202FB1151A5E70020E061BDE733
:103A1000484601F0DBFA08B10126A2E7B9F80C101C
:103A200009F13400FCF734FCD9F81800A8F1020AB7
:103A3000811EB9F80A208A4504D2D9F82C100AFB55
:103A4000021100E000214FF00007C9F83010A2B1C8
:103A50000126484689F8036001F0B8FA00287FF48F
:103A600080AFD9F83000B9F80A200137411C9742DD
:103A7000C9F83010EDD3D9F81800C91BC9F83010B7
:103A800096E70000B0B50468054600F02DF800BFC9
:103A900070B9E969204601F05FF948B9286A0078F1
:103AA00050B1E52808D028460121FFF73DFFEFE798
:103AB000042808BF072020B9E969204601F04CF925
:103AC00000B1B0BD286A2021FCF7E2FB286A05F1AD
:103AD000240100228B5C835401320B2AFAD101208D
:103AE000E0700020B0BD0000B0B5816805680446F4
:103AF00000206061D9B16889AA89504378B1AA6968
:103B0000881E023A90421DD26A89EB6A00FB02309D
:103B100019E000BF02291FD3A86981421CD22046A8
:103B200000F0CAFF01460130F4D10120B0BD287871
:103B3000032802D3A96A0029DDD1288960B1A86AC7
:103B4000002100E00020A161E06128B105F134010D
:103B5000C4E907010020B0BD0220B0BD42F2F86107
:103B6000C2F200010A5C0AB10020704701230A1862
:103B70000B5401EB80004168107A0968084742F253
:103B8000F86CC2F2000C0CEB80035B686044007AB6
:103B90001B69184780B542F2F86CC2F2000C0CEBBE
:103BA000800EDEF804E06044007ADEF808C0BDE86C
:103BB0008040604742F2F861C2F2000101EB8002EE
:103BC00052680844007A5168084780B542F2F86CA0
:103BD000C2F2000C0CEB800EDEF804E06044007AC8
:103BE000DEF80CC0BDE88040604710B582B00446E6
:103BF00000F0C2FB08BB01A9204601F01DFAE0B9A4
:103C000020690138042817D840F2182CC2F2000CA1
:103C10000CEB00129389B3F5807118BF1946002987
:103C200018BF01390B04918103D1000100214CF828
:103C300000100020206000E0022002B010BD000053
:103C40002DE9F04F81B00D466946044601F0F4F9C4
:103C50000646002840F02481667D002E40F0208139
:103C6000E16A002941D0681C4BD0E068A84238BF07
:103C70000546002DA56100F012816E1E20463146DA
:103C8000FFF7D4FD009F821EB969E06102398A42C4
:103C900080F0DF807989F86A02FB0100002800F0DB
:103CA000D880BA89B5FBF2F303FB1253002B00F066
:103CB000F680B6FBF2F201391140226A0D189542E6
:103CC00000F0ED8094F91400B0F1FF3F40F39980CB
:103CD000787804F130012A4601230126FFF75AFFC4
:103CE000002840F0B7802562D9E0E168A9422DD2D2
:103CF000207D80072BD5264656F8180F002131600D
:103D00002CE08B46A0685BF8048BF0B3DDF80090E4
:103D10000226824602360027054600BF2046294675
:103D200000F0CAFE012840F29480411C67D0691C53
:103D3000013788420546F1D0464598BFEBE8027A44
:103D4000D9F818108842E4D3E16A1FE029462646D4
:103D500056F8180F00270D463760A1B1DDF8008036
:103D6000B8F80A10B8F80C2002FB01F738B1691E48
:103D70000138B1FBF7F1B0FBF7F291420ED2A16826
:103D800091B3E1610FE000206FE0022646450E602E
:103D90008EBF11260026CBF8006081E079420840F2
:103DA000A061E1692D1AE9B1BD4239D9A069227D2E
:103DB00038449207A061204603D400F07DFE0146FE
:103DC00003E0FFF74FFD014640B3481C17D002291E
:103DD0003FD3D8F8180081423BD2ED1BBD42E161D0
:103DE000E4D81DE0306837E020460021FFF73AFDB7
:103DF0000146013003D001292BD0A160C1E7012683
:103E000028E0787804F1300101230126FFF7DDFE78
:103E100000BB207D00F07F00207559E700210025C0
:103E2000B8F80C003368B5FBF0F202FB10575819D4
:103E300030608FB1D8F818300239023B994208D26D
:103E4000B8F80A30D8F82C7001FB037109B1571883
:103E500003E00226667523E00027E168884204D962
:103E6000217DE06041F040012175009DA989B0FBF2
:103E7000F1F202FB110090B1226A97420FD094F93F
:103E80001400B0F1FF3F0FDD687804F130013A46CD
:103E900001230126FFF77EFE0028DBD127620026E2
:103EA000304601B0BDE8F08F687804F1300101239D
:103EB0000126FFF78AFE0028CCD1207D00F07F008C
:103EC0002075E1E7F0B583B00546029068461746D5
:103ED000CDE9001100F070FE002824D440F2142C2B
:103EE000C2F2000C5CF8201079B140F218220023D5
:103EF000C2F20002002400BF16598E4208BF1351BF
:103F00001034502CF8D100220A7075B10021012F15
:103F100029704CF820500BD101A802A9002200F012
:103F20006BFB014604E00B2102E04CF8205000211D
:103F3000084603B0F0BD00002DE9F04F8FB00E91A0
:103F400070B102F03F0A154683460EA801A95246F9
:103F500000F052FB074640B10020CBF8000000E023
:103F6000092738460FB0BDE8F08FDDF804800E99C0
:103F700002A8CDF8088000F0A9FC074668B99DF9B1
:103F80003700002808D415F03E0102A818BF01210F
:103F9000FFF718FC074600E006271AF01C0F0ED0AA
:103FA000DFB1042F25D140F218210020C2F2000118
:103FB0000A58D2B110305028FAD1122719E0002F38
:103FC000CAD19DF80E00C10600F1CE805FEA8A7169
:103FD00056D510F0010006D152E09DF80E0010F009
:103FE000110F00F0BD800727B6E702A8FFF74AFDD2
:103FF00007464AF0080A002F3FD11AF008003CD0CB
:1040000000F0D8FD0A99020A030C070E8873CA73E0
:104010000B744F7488752020CA750B764F76C87262
:10402000887E98F80020CB7E032A40EA032505D13C
:10403000487D0A7D000640EA02400544002048838E
:1040400098F80020032A08BF8882C861012088F8F8
:104050000300ADB1D8F8309002A82946002200F044
:104060003FFF074600287FF477AF4046494600F0FF
:1040700073FE0746681EC8F81000002F7FF46CAF6F
:104080000AF008004AEAC009D8F830000A9E002168
:10409000CBE9090602A8B9F1010F88BF012100F0A0
:1040A000ADFD0028CBF8100000F08680B07E98F8B7
:1040B0000010F27E032940EA022505D1707D317D92
:1040C000000640EA01400544CBF80850F669002795
:1040D000CBF80C60CBF82C70CBF80080B8F8060059
:1040E0004FF48051ABF804008BF814900BF13009B9
:1040F00048468BF81570CBF82070CBF81870FCF799
:10410000C7F85FEA8A607FF52CAF002E3FF429AF35
:10411000CBF81860B8F80A00B8F80C1001FB00F4EE
:10412000A64223D9C4F1000A5846294600F0C4FC2F
:10413000054602284FF0000038BF01204700681CE8
:1041400008BF0127A6EB040027B90AEB0601A1422C
:104150000646E9D8002FCBF81C507FF4FDAE08E0EE
:10416000082000EA450746E70427F5E6CBF81C508F
:104170003046B8F80C20B0FBF2F101FB1200C8B1D8
:10418000D8F81820A81E023A904215D2B8F80A2092
:10419000D8F82C3000FB023070B10A18CBF8202080
:1041A00098F80100494601230127FFF7F3FC002896
:1041B0007FF4D2AE0027D4E60227CDE62DE9F04FFA
:1041C00083B0044600200F46186002A920469A4694
:1041D000164600F031FF002840F0CB80607D0028BB
:1041E00040F0C780207DC00701D10720C1E0E06812
:1041F000A169401AB04238BF0646002E00F0B380D5
:1042000004F13000019000BFDDF808B0BBF80C00ED
:10421000B1FBF0F303FB1012002A56D1BBF80A00E1
:10422000013810EA030801D0E06913E029B1E06A1F
:1042300028B12046FFF7FAFA05E0A06803E0E1693B
:10424000204600F039FC012840F28F80411C00F02C
:104250008E80E061DBF8181002380239884280F065
:104260008480BBF80A10DBF82C2000FB0122002A16
:104270007BD0BBF80C0002EB0809864237D2226AD9
:104280004A451BD094F91400B0F1FF3F0BDC9BF8BA
:10429000010001990123FFF798FC002867D1207DD8
:1042A00000F07F0020759BF8010001994A46012328
:1042B000FFF770FC00285AD1BBF80C00A169C4F8C4
:1042C0002090B1FBF0F202FB1012801AB04288BFBE
:1042D000304650B1A118303102463B4611F8015B1F
:1042E000013A03F8015BF9D12EE000202CE0B6FB87
:1042F000F0F54A4605EB080088429BF8010088BFAC
:10430000A1EB080539462B46FFF744FC78BB94F92E
:104310001400B0F1FF3F13DC206AA0EB0901A942B1
:104320000ED2BBF80C0058B101FB0071019A00BF1E
:1043300012F8013B013801F8013BF9D1DDF808B072
:10434000BBF80C00684300BFA169DAF800200744FD
:1043500001440244361A4FF00000A161CAF800205F
:104360007FF452AF05E0002003E0022000E00120CE
:10437000607503B0BDE8F08FF0B581B069460446C2
:1043800000F05AFE0746002841D1207D410601D4A5
:1043900000273CE0009D00060CD56878226A04F1F5
:1043A000300101230127FFF710FC80BB207D00F0C6
:1043B0007F00207500F0FEFB616A0646284600F08B
:1043C000CBFC074618BBA06AC17A41F02001C1723C
:1043D000A168226841831278032A03D10A0C090ECE
:1043E00002754175E168C161310A8675C175310C8C
:1043F0000176310E4176002141820120E870284685
:1044000000F0A9FD217D074601F0BF002075384668
:1044100001B0F0BD2DE9F04F83B0044600200F46F7
:10442000186002A920469946164600F005FE0028AD
:1044300040F0DE80607D002840F0DA80207D81073A
:1044400001D40720D4E0A169CA43B24238BF16465E
:10445000002E00F0C48004F130000190DDF808B0B7
:10446000BBF80C00B1FBF0F303FB1012002A64D17F
:10447000BBF80A00013810EA03081DD129B1E06A2F
:1044800040B12046FFF7D2F908E0A06830B92046D5
:10449000002101E0E1692046FFF7E4F9411C00F04A
:1044A000A580002800F09A80012800F09D80A16876
:1044B000E06109B9A06000BF94F91400B0F1FF3FBA
:1044C0000DDC9BF80100226A01990123FFF77DFBB7
:1044D000002840F08B80207D00F07F002075E0698F
:1044E000DBF818100238023988427DD2BBF80A1076
:1044F000DBF82C2000FB0122002A75D0BBF80C0051
:1045000002EB080A86423DD2216A51450ED0E1688D
:10451000A2698A420AD29BF80100019952460123FE
:10452000FFF738FB002861D1BBF80C00A169C4F883
:1045300020A0B1FBF0F202FB1012801AB04288BF3B
:10454000304648B1A118303102463B4613F8015BB2
:10455000013A01F8015BF9D1217D41F0800121751B
:10456000A169E2680144914288BF0A46E260D9F835
:10457000002007440244361AA161C9F800207FF4E4
:104580006DAF2BE0B6FBF0F5524605EB0800884214
:104590009BF8010088BFA1EB080539462B46FFF7C1
:1045A00014FB18BB206AA0EB0A01A94212D2BBF887
:1045B0000C0058B101FB0071019A00BF11F8013BDA
:1045C000013802F8013BF9D1DDF808B0207D00F098
:1045D0007F002075BBF80C006843C1E7207D40F0E8
:1045E00040002075002003E0022000E001206075FB
:1045F00003B0BDE8F08F00002DE9F04385B00F4611
:1046000000211546396000F0D7FA002818D4064674
:1046100040F21420C2F2000050F8264004B33C607F
:10462000207805F0FE0568B16078FFF7C3FAC1078E
:1046300008D140070A21002D18BF01EAE0751CE0EF
:104640000B251AE000202070F0B26670FFF786FAA2
:10465000C10707D145B110F0040005D00A250CE0D0
:104660000C250AE0032508E0607804F10C0502211E
:104670002A46FFF784FA20B10125284605B0BDE897
:10468000F08328880125A0F5007189B2B1F5606F2B
:10469000F3D845F2555101EA5001401A4FF0333139
:1046A00001EA900120F0CC30084400EB101020F01B
:1046B000F0304FF001314843000E0128DDD820468C
:1046C00000210025FFF741F802281FD101AE00208C
:1046D000314600BF221892F8F6311030002B14BF7B
:1046E000D2F8FA210022402841F8042BF2D1002709
:1046F00056F8275035B120462946FFF726F80228FC
:1047000001D207E003200137042FF1D10428B3D0F0
:10471000012829D8B4F83F00A189884224D194F80F
:104720004A1094F84B2041EA022101B9A16D94F896
:104730004470E1617A1E012AA77015D894F84130BF
:104740005A1E1A40B3FA83F618BF01227609324383
:10475000638109D1B4F845204609B2FBF6F82281FD
:1047600008FB1626360401D00D2586E794F847C0CD
:1047700094F848604CEA062EBEF1000F08BFD4F84A
:1047800054E094F842C094F843604CEA062CBCF123
:10479000000FE9D001FB07F909EB0C064644B645CA
:1047A000E2D3AEEB06079F42DED3B7FBF3F34FF63F
:1047B000F6774FF00308BB4240F6F67738BF4FF06C
:1047C0000208BB4238BF4FF0010803F1020E05EBAF
:1047D0000C037719B8F1030FC4F818E0C4E90853C3
:1047E000E7620DD194F85E3094F85F701A4342EAA4
:1047F00007221204B8D1226EA2624FEA8E020FE0A5
:10480000002AB1D003EB0902B8F1020FA2620FBF78
:104810004FEA4E020EEB4E020EF0010303EB520282
:104820000244013AB2FBF0F081429DD34FF0FF30D9
:10483000C4E904008020B8F1030F20712DD194F851
:10484000640094F8651040EA0120012825D1691C14
:10485000204600F081FA00BB94F8320294F833123B
:10486000002240EA01204AF655218842227114D1E3
:10487000606B45F25221C4F2611188420DD1D4F827
:10488000180247F27221C6F24111884205D1D4F8CC
:104890002002D4F81C12C4E9040140F2682084F814
:1048A0000080C2F200000188002201310180E18015
:1048B00040F218210020C2F2000100258B58A342CB
:1048C00008BF88501032502AF8D1D6E62DE9F04FB3
:1048D00081B0D0F800E080460D4600BF28785C2803
:1048E00018BF2F2801D10135F8E70020C8F80800CB
:1048F0002878202808D28021404688F82F1001B05F
:10490000BDE8F04FFFF7F0B845F23C1A08F1240B70
:104910004FF02030C0F6000A00214FF0080C0022B2
:10492000CBF80700CBF80400CBF800006E5C013137
:10493000212EC0F0A98001EB0C00801AF3B22E2BBF
:104940002FD05C2B39D02F2B37D0814228D074B296
:10495000B4F1FF3F06DC45F29E04C0F60004234498
:1049600013F8806C534600BF13F8014B14B1F7B233
:10497000BC42F9D1002C40F08C80A6F16103DBB27F
:104980001A2B08EB020338BF203E83F824606E5CCC
:1049900001F101090132212E4946CFD216E000BFB4
:1049A0000146BCF10B0F4FF0060073D008222E2BEE
:1049B0004FF00B0CBAD06DE00131685C5C2818BF79
:1049C0002F28F9D0002089460AB962E004209BF81C
:1049D00000107446E52904BF05218BF80010D8F8B3
:1049E000006088F82F004046FFF77EF820BBD8F81B
:1049F0001C10304600F0B0F9F0B9D8F8200001786A
:104A000000294AD0C17A01F03F0188F80610C17A26
:104A100009070CD4002100BF425C1BF801300A29B1
:104A200003D09A4201F10101F6D09A422ED04046BD
:104A30000021FEF779FFD9E798F82F10A8BB4807A7
:104A400036D498F80600C00634D5D8F81400A189E9
:104A5000A646B0FBF1F24D4402FB1100227821186A
:104A600091F84E0091F84F30032A40EA032006D116
:104A700034314A7D097D120642EA01410844C8F8F2
:104A800008004FF0203047E704209CE798F82F10EB
:104A9000D5E7062001B0BDE8F08F98F82F10480741
:104AA0004FF0040058BF0520F4E70428F2D1F6E7E0
:104AB0000020EFE70520EDE7F0B581B0022939D3FA
:104AC00005680C46A869884234D92878032834D070
:104AD000022853D001282DD1A88904EB5406696A15
:104AE000B6FBF0F00144284600F036F900284FD11B
:104AF000A8896A6AB6FBF0F101FB10610136B6FBCA
:104B0000F0F0294491F834708118284600F024F917
:104B1000F0BBA889E207B6FBF0F101FB1060284466
:104B200090F8340047EA002108466FF31F3018BFA1
:104B3000080900E0012001B0F0BDA889696A800879
:104B4000B4FBF0F00144284600F006F900BBA88948
:104B5000A100B1FBF0F14843C0EB8400291891F8A3
:104B6000373091F8340091F8352091F836101B0455
:104B700043EA0121114461F31B20DCE7A889696A3B
:104B80004008B4FBF0F00144284600F0E5F810B10D
:104B90004FF0FF30CFE7A8896100B1FBF0F1484347
:104BA000C0EB4400284490F8341090F8350041EAF6
:104BB0000020C0E7002070470268D2B1002300BF88
:104BC000D15C0133212901D33A29F9D13A290ED1F7
:104BD0001178A1F1300CBCF1090F0AD8022B4FF06B
:104BE000FF3108BFBCF1000F05D1D11801600021D1
:104BF00001E04FF0FF31084670470000B0B540F2C9
:104C0000182CC2F2000CD0F800E00CF104030022D2
:104C100053F8044C744507D11C688568AC4203D135
:104C20005C684569AC4219D00132052A03F11003D2
:104C3000EED140F218230022C2F200031C682CB10E
:104C40000132052A03F11003F8D10DE0C3F800E0AA
:104C500085684069C3E90150002098810CEB02107F
:104C600030F80C3F11B11BB10020B0BD591C01E060
:104C70004FF480710180501CB0BD0000FBF776FF3F
:104C8000FEF73EFBFDF700FEFDF7C9FDFDF7C3FE95
:104C9000FDF7B2FEFDF7D9FEFDF7F1FEFDF7E3FDEE
:104CA000FDF724FFFDF707FF40F2702043F67C116B
:104CB000C2F20000C2F2000120A223A3FBF797FB7F
:104CC00042F2047445F24A15C2F20004C0F600052F
:104CD000204629460022FFF7F5F80028F8D10024E5
:104CE000C4F2020420464FF400710022FBF726FFB5
:104CF0000B20642100F04CF804F5006528461021D3
:104D0000FBF710FF98B140F27026C2F2000600BF18
:104D100020460221FBF706FF18B90A203146FDF7AD
:104D200009FF28461021FBF7FDFE0028F0D140F2D4
:104D30007020C2F20000FBF799FB00BF444D5831D0
:104D40002E74787400000000444D5831496E666F2F
:104D50002E74787400000000B0B50446006B8842E1
:104D600004BF0020B0BD20460D4600F02FF900B171
:104D7000B0BD607804F134012A460123FEF70AFF32
:104D800000281CBF4FF0FF3501202563B0BD000097
:104D900070B50026C4F202060C46054630462021B6
:104DA0000022FBF7CBFE45B130462021FBF7BFFECA
:104DB0002046FBF7BFFD013DF6D170BDF0B581B0D7
:104DC00002292AD3044680690E46884225D92078D4
:104DD0001546032824D0022849D001281DD1A089D6
:104DE00006EB5607616AB7FBF0F001442046FFF777
:104DF000B3FF98B9A08916F00106B7FBF0F101FBEB
:104E0000107107F10107214401F1340144D00A78FF
:104E100002F00F0265F30B123FE0022001B0F0BD7B
:104E2000A089616A8008B6FBF0F001442046FFF7D4
:104E300093FF0028F2D1A089B100B1FBF0F105F099
:104E400070624843C0EB8600204490F8371080F829
:104E5000345001F0F00142EA01612A0A80F835205D
:104E60002A0C090E80F8362080F8371034E0A0892B
:104E7000616A4008B6FBF0F001442046FFF76CFF82
:104E80000028CBD1A0897100B1FBF0F14843C0EB01
:104E90004600204485861FE0EAB20A70626AB7FBCA
:104EA000F0F00121E17081182046FFF755FF00283E
:104EB000B4D1A089B7FBF0F101FB1070204400F1E0
:104EC000340016B1C5F3071105E00178C5F30322DC
:104ED00001F0F001114401700120E07000209DE715
:104EE000F0B581B002292FD305680446A8690E46A3
:104EF000884229D9B2B1284611464FF0FF32FFF758
:104F00005DFF10BB0EE000BFD5E90510821E914287
:104F100005D22A790131696142F001012971874284
:104F20003E4614D220463146FFF7C6FD0746013003
:104F30000FD067B1012F07D0284631460022FFF776
:104F40003DFF0028E0D000E0022001B0F0BD0020CD
:104F5000FBE70120F9E7B0B5044600F037F800B1EF
:104F6000B0BD2078032827D12079012824D1A18938
:104F700004F134052846FBF78BF94AF65520A4F8CE
:104F8000320245F25220C4F26110606347F272208F
:104F9000C6F24110C4F81802D4E904100123C4F881
:104FA0001C02206AC4F82012421C60782946226341
:104FB000FEF70BFE00202071607800210022FEF732
:104FC000DEFD002818BF0120B0BD00002DE9F04132
:104FD0000446C07860B3266B607804F1340841461B
:104FE000324601230127FEF7F0FD10BB606AE1693C
:104FF000301A00278842E7701BD2A578022D17D3FC
:1050000060780E44414632460123FEF7DEFD013D45
:10501000022D0DD3002700BFE16960780E444146A0
:1050200032460123FEF7D1FD013D012DF4D800E009
:1050300000273846BDE8F081B0B50C4680B1054682
:10504000006868B1017859B1A988C288914207D136
:105050004078FEF7AFFDC00702D12968002001E0CB
:10506000002109202160B0BD02E008C8121F08C15C
:10507000002AFAD170477047002001E001C1121FD9
:10508000002AFBD170470000000000000000010270
:105090000304060708090000000001020304435549
:1050A0004541414141434545454949494141459271
:1050B000924F4F4F5555594F554F9C4F9E9F4149C9
:1050C0004F55A5A5A6A7A8A9AAABACADAEAFB0B1E8
:1050D000B2B3B4414141B8B9BABBBCBDBEBFC0C197
:1050E000C2C3C4C54141C8C9CACBCCCDCECFD1D132
:1050F00045454549494949D9DADBDCDD49DF4FE11E
:105100004F4F4F4FE6E8E85555555959EEEFF0F13E
:10511000F2F3F4F5F6F7F8F9FAFBFCFDFEFF0000F8
:10512000C33100086932000845320008893200089E
:10513000F13100080006101600061016222A2B2C4A
:105140003A3B3C3D3E3F5B5D7C7F00007051000878
:105150000000002010000000685000088051000886
:1051600010000020B879000078500008000000000E
:10517000010000000024F400010000001000000005
:04000005080001C529
:00000001FF
